{
  "_format": "hh-sol-artifact-1",
  "contractName": "Database",
  "sourceName": "contracts/Database.sol",
  "abi": [
    {
      "inputs": [],
      "stateMutability": "nonpayable",
      "type": "constructor"
    },
    {
      "anonymous": false,
      "inputs": [
        {
          "indexed": true,
          "internalType": "address",
          "name": "from",
          "type": "address"
        },
        {
          "indexed": false,
          "internalType": "uint256",
          "name": "timestamp",
          "type": "uint256"
        },
        {
          "indexed": false,
          "internalType": "string",
          "name": "message",
          "type": "string"
        }
      ],
      "name": "NewTweetStored",
      "type": "event"
    },
    {
      "inputs": [],
      "name": "getAllTweets",
      "outputs": [
        {
          "components": [
            {
              "internalType": "address",
              "name": "user",
              "type": "address"
            },
            {
              "internalType": "string",
              "name": "message",
              "type": "string"
            },
            {
              "internalType": "uint256",
              "name": "timestamp",
              "type": "uint256"
            }
          ],
          "internalType": "struct Database.database[]",
          "name": "",
          "type": "tuple[]"
        }
      ],
      "stateMutability": "view",
      "type": "function"
    },
    {
      "inputs": [],
      "name": "getTotalTweets",
      "outputs": [
        {
          "internalType": "uint256",
          "name": "",
          "type": "uint256"
        }
      ],
      "stateMutability": "view",
      "type": "function"
    },
    {
      "inputs": [
        {
          "internalType": "address",
          "name": "",
          "type": "address"
        }
      ],
      "name": "lastDatabaseStoredAt",
      "outputs": [
        {
          "internalType": "uint256",
          "name": "",
          "type": "uint256"
        }
      ],
      "stateMutability": "view",
      "type": "function"
    },
    {
      "inputs": [
        {
          "internalType": "string",
          "name": "_databaseString",
          "type": "string"
        }
      ],
      "name": "storeTweet",
      "outputs": [],
      "stateMutability": "nonpayable",
      "type": "function"
    }
  ],
  "bytecode": "0x60806040523480156200001157600080fd5b506200005d6040518060400160405280601181526020017f446174616261736520636f6e74726163740000000000000000000000000000008152506200006360201b6200049b1760201c565b620001f7565b62000103816040516024016200007a919062000170565b6040516020818303038152906040527f41304fac000000000000000000000000000000000000000000000000000000007bffffffffffffffffffffffffffffffffffffffffffffffffffffffff19166020820180517bffffffffffffffffffffffffffffffffffffffffffffffffffffffff83818316178352505050506200010660201b60201c565b50565b60008151905060006a636f6e736f6c652e6c6f679050602083016000808483855afa5050505050565b60006200013c8262000194565b6200014881856200019f565b93506200015a818560208601620001b0565b6200016581620001e6565b840191505092915050565b600060208201905081810360008301526200018c81846200012f565b905092915050565b600081519050919050565b600082825260208201905092915050565b60005b83811015620001d0578082015181840152602081019050620001b3565b83811115620001e0576000848401525b50505050565b6000601f19601f8301169050919050565b610e6080620002076000396000f3fe608060405234801561001057600080fd5b506004361061004c5760003560e01c80631f249f731461005157806353256135146100815780635e1869851461009f57806393f11c27146100bb575b600080fd5b61006b600480360381019061006691906107b5565b6100d9565b6040516100789190610a8d565b60405180910390f35b6100896100f1565b60405161009691906109c9565b60405180910390f35b6100b960048036038101906100b491906107de565b610242565b005b6100c361046d565b6040516100d09190610a8d565b60405180910390f35b60026020528060005260406000206000915090505481565b60606001805480602002602001604051908101604052809291908181526020016000905b8282101561023957838290600052602060002090600302016040518060600160405290816000820160009054906101000a900473ffffffffffffffffffffffffffffffffffffffff1673ffffffffffffffffffffffffffffffffffffffff1673ffffffffffffffffffffffffffffffffffffffff16815260200160018201805461019e90610c68565b80601f01602080910402602001604051908101604052809291908181526020018280546101ca90610c68565b80156102175780601f106101ec57610100808354040283529160200191610217565b820191906000526020600020905b8154815290600101906020018083116101fa57829003601f168201915b5050505050815260200160028201548152505081526020019060010190610115565b50505050905090565b426028600260003373ffffffffffffffffffffffffffffffffffffffff1673ffffffffffffffffffffffffffffffffffffffff1681526020019081526020016000205461028f9190610b94565b106102cf576040517f08c379a00000000000000000000000000000000000000000000000000000000081526004016102c690610a6d565b60405180910390fd5b42600260003373ffffffffffffffffffffffffffffffffffffffff1673ffffffffffffffffffffffffffffffffffffffff1681526020019081526020016000208190555060016000808282546103259190610b94565b9250508190555061034e6040518060600160405280602c8152602001610dd0602c913933610534565b600160405180606001604052803373ffffffffffffffffffffffffffffffffffffffff16815260200183815260200142815250908060018154018082558091505060019003906000526020600020906003020160009091909190915060008201518160000160006101000a81548173ffffffffffffffffffffffffffffffffffffffff021916908373ffffffffffffffffffffffffffffffffffffffff160217905550602082015181600101908051906020019061040d929190610695565b506040820151816002015550503373ffffffffffffffffffffffffffffffffffffffff167f9b2db87af2011e938ec94cd908a2d7496df89b3e293d8f4b39b811a20e819f6c4283604051610462929190610aa8565b60405180910390a250565b60006104936040518060600160405280602f8152602001610dfc602f91396000546105d0565b600054905090565b610531816040516024016104af91906109eb565b6040516020818303038152906040527f41304fac000000000000000000000000000000000000000000000000000000007bffffffffffffffffffffffffffffffffffffffffffffffffffffffff19166020820180517bffffffffffffffffffffffffffffffffffffffffffffffffffffffff838183161783525050505061066c565b50565b6105cc828260405160240161054a929190610a0d565b6040516020818303038152906040527f319af333000000000000000000000000000000000000000000000000000000007bffffffffffffffffffffffffffffffffffffffffffffffffffffffff19166020820180517bffffffffffffffffffffffffffffffffffffffffffffffffffffffff838183161783525050505061066c565b5050565b61066882826040516024016105e6929190610a3d565b6040516020818303038152906040527f9710a9d0000000000000000000000000000000000000000000000000000000007bffffffffffffffffffffffffffffffffffffffffffffffffffffffff19166020820180517bffffffffffffffffffffffffffffffffffffffffffffffffffffffff838183161783525050505061066c565b5050565b60008151905060006a636f6e736f6c652e6c6f679050602083016000808483855afa5050505050565b8280546106a190610c68565b90600052602060002090601f0160209004810192826106c3576000855561070a565b82601f106106dc57805160ff191683800117855561070a565b8280016001018555821561070a579182015b828111156107095782518255916020019190600101906106ee565b5b509050610717919061071b565b5090565b5b8082111561073457600081600090555060010161071c565b5090565b600061074b61074684610afd565b610ad8565b90508281526020810184848401111561076357600080fd5b61076e848285610c26565b509392505050565b60008135905061078581610db8565b92915050565b600082601f83011261079c57600080fd5b81356107ac848260208601610738565b91505092915050565b6000602082840312156107c757600080fd5b60006107d584828501610776565b91505092915050565b6000602082840312156107f057600080fd5b600082013567ffffffffffffffff81111561080a57600080fd5b6108168482850161078b565b91505092915050565b600061082b838361095b565b905092915050565b61083c81610bea565b82525050565b61084b81610bea565b82525050565b600061085c82610b3e565b6108668185610b61565b93508360208202850161087885610b2e565b8060005b858110156108b45784840389528151610895858261081f565b94506108a083610b54565b925060208a0199505060018101905061087c565b50829750879550505050505092915050565b60006108d182610b49565b6108db8185610b72565b93506108eb818560208601610c35565b6108f481610d58565b840191505092915050565b600061090a82610b49565b6109148185610b83565b9350610924818560208601610c35565b61092d81610d58565b840191505092915050565b6000610945603e83610b83565b915061095082610d69565b604082019050919050565b60006060830160008301516109736000860182610833565b506020830151848203602086015261098b82826108c6565b91505060408301516109a060408601826109ab565b508091505092915050565b6109b481610c1c565b82525050565b6109c381610c1c565b82525050565b600060208201905081810360008301526109e38184610851565b905092915050565b60006020820190508181036000830152610a0581846108ff565b905092915050565b60006040820190508181036000830152610a2781856108ff565b9050610a366020830184610842565b9392505050565b60006040820190508181036000830152610a5781856108ff565b9050610a6660208301846109ba565b9392505050565b60006020820190508181036000830152610a8681610938565b9050919050565b6000602082019050610aa260008301846109ba565b92915050565b6000604082019050610abd60008301856109ba565b8181036020830152610acf81846108ff565b90509392505050565b6000610ae2610af3565b9050610aee8282610c9a565b919050565b6000604051905090565b600067ffffffffffffffff821115610b1857610b17610d29565b5b610b2182610d58565b9050602081019050919050565b6000819050602082019050919050565b600081519050919050565b600081519050919050565b6000602082019050919050565b600082825260208201905092915050565b600082825260208201905092915050565b600082825260208201905092915050565b6000610b9f82610c1c565b9150610baa83610c1c565b9250827fffffffffffffffffffffffffffffffffffffffffffffffffffffffffffffffff03821115610bdf57610bde610ccb565b5b828201905092915050565b6000610bf582610bfc565b9050919050565b600073ffffffffffffffffffffffffffffffffffffffff82169050919050565b6000819050919050565b82818337600083830152505050565b60005b83811015610c53578082015181840152602081019050610c38565b83811115610c62576000848401525b50505050565b60006002820490506001821680610c8057607f821691505b60208210811415610c9457610c93610cfa565b5b50919050565b610ca382610d58565b810181811067ffffffffffffffff82111715610cc257610cc1610d29565b5b80604052505050565b7f4e487b7100000000000000000000000000000000000000000000000000000000600052601160045260246000fd5b7f4e487b7100000000000000000000000000000000000000000000000000000000600052602260045260246000fd5b7f4e487b7100000000000000000000000000000000000000000000000000000000600052604160045260246000fd5b6000601f19601f8301169050919050565b7f596f75206e65656420746f2077616974203430207365636f6e6473206265666f60008201527f72652073746f72696e672074686520646174616261736520616761696e210000602082015250565b610dc181610bea565b8114610dcc57600080fd5b5056fe257320686173206a7573742073746f7265642061207477656574206f6e2074686520626c6f636b636861696e546865726520617265202564206461746162617365732073746f726564206f6e2074686520626c6f636b636861696ea264697066735822122019a7e2541f93a9d4c74395689d6dd8b74d10c46e88288d06ebe9be3f0a27849c64736f6c63430008040033",
  "linkReferences": {},
  "deployedLinkReferences": {}
}