{
    "_format": "hh-sol-artifact-1",
    "contractName": "EvidenceNFT",
    "sourceName": "contracts/NFTtweet.sol",
    "abi": [
        {
            "inputs": [],
            "stateMutability": "nonpayable",
            "type": "constructor"
        },
        {
            "anonymous": false,
            "inputs": [
                {
                    "indexed": true,
                    "internalType": "address",
                    "name": "owner",
                    "type": "address"
                },
                {
                    "indexed": true,
                    "internalType": "address",
                    "name": "approved",
                    "type": "address"
                },
                {
                    "indexed": true,
                    "internalType": "uint256",
                    "name": "tokenId",
                    "type": "uint256"
                }
            ],
            "name": "Approval",
            "type": "event"
        },
        {
            "anonymous": false,
            "inputs": [
                {
                    "indexed": true,
                    "internalType": "address",
                    "name": "owner",
                    "type": "address"
                },
                {
                    "indexed": true,
                    "internalType": "address",
                    "name": "operator",
                    "type": "address"
                },
                {
                    "indexed": false,
                    "internalType": "bool",
                    "name": "approved",
                    "type": "bool"
                }
            ],
            "name": "ApprovalForAll",
            "type": "event"
        },
        {
            "anonymous": false,
            "inputs": [
                {
                    "indexed": false,
                    "internalType": "address",
                    "name": "sender",
                    "type": "address"
                },
                {
                    "indexed": false,
                    "internalType": "uint256",
                    "name": "tokenId",
                    "type": "uint256"
                }
            ],
            "name": "NewEVIDENCENFTMinted",
            "type": "event"
        },
        {
            "anonymous": false,
            "inputs": [
                {
                    "indexed": true,
                    "internalType": "address",
                    "name": "from",
                    "type": "address"
                },
                {
                    "indexed": true,
                    "internalType": "address",
                    "name": "to",
                    "type": "address"
                },
                {
                    "indexed": true,
                    "internalType": "uint256",
                    "name": "tokenId",
                    "type": "uint256"
                }
            ],
            "name": "Transfer",
            "type": "event"
        },
        {
            "inputs": [
                {
                    "internalType": "address",
                    "name": "to",
                    "type": "address"
                },
                {
                    "internalType": "uint256",
                    "name": "tokenId",
                    "type": "uint256"
                }
            ],
            "name": "approve",
            "outputs": [],
            "stateMutability": "nonpayable",
            "type": "function"
        },
        {
            "inputs": [
                {
                    "internalType": "address",
                    "name": "owner",
                    "type": "address"
                }
            ],
            "name": "balanceOf",
            "outputs": [
                {
                    "internalType": "uint256",
                    "name": "",
                    "type": "uint256"
                }
            ],
            "stateMutability": "view",
            "type": "function"
        },
        {
            "inputs": [
                {
                    "internalType": "uint256",
                    "name": "tokenId",
                    "type": "uint256"
                }
            ],
            "name": "getApproved",
            "outputs": [
                {
                    "internalType": "address",
                    "name": "",
                    "type": "address"
                }
            ],
            "stateMutability": "view",
            "type": "function"
        },
        {
            "inputs": [
                {
                    "internalType": "address",
                    "name": "owner",
                    "type": "address"
                },
                {
                    "internalType": "address",
                    "name": "operator",
                    "type": "address"
                }
            ],
            "name": "isApprovedForAll",
            "outputs": [
                {
                    "internalType": "bool",
                    "name": "",
                    "type": "bool"
                }
            ],
            "stateMutability": "view",
            "type": "function"
        },
        {
            "inputs": [
                {
                    "internalType": "string",
                    "name": "_tweetURL",
                    "type": "string"
                },
                {
                    "internalType": "string",
                    "name": "_date",
                    "type": "string"
                }
            ],
            "name": "makeNFT",
            "outputs": [],
            "stateMutability": "nonpayable",
            "type": "function"
        },
        {
            "inputs": [],
            "name": "name",
            "outputs": [
                {
                    "internalType": "string",
                    "name": "",
                    "type": "string"
                }
            ],
            "stateMutability": "view",
            "type": "function"
        },
        {
            "inputs": [
                {
                    "internalType": "uint256",
                    "name": "tokenId",
                    "type": "uint256"
                }
            ],
            "name": "ownerOf",
            "outputs": [
                {
                    "internalType": "address",
                    "name": "",
                    "type": "address"
                }
            ],
            "stateMutability": "view",
            "type": "function"
        },
        {
            "inputs": [
                {
                    "internalType": "address",
                    "name": "from",
                    "type": "address"
                },
                {
                    "internalType": "address",
                    "name": "to",
                    "type": "address"
                },
                {
                    "internalType": "uint256",
                    "name": "tokenId",
                    "type": "uint256"
                }
            ],
            "name": "safeTransferFrom",
            "outputs": [],
            "stateMutability": "nonpayable",
            "type": "function"
        },
        {
            "inputs": [
                {
                    "internalType": "address",
                    "name": "from",
                    "type": "address"
                },
                {
                    "internalType": "address",
                    "name": "to",
                    "type": "address"
                },
                {
                    "internalType": "uint256",
                    "name": "tokenId",
                    "type": "uint256"
                },
                {
                    "internalType": "bytes",
                    "name": "_data",
                    "type": "bytes"
                }
            ],
            "name": "safeTransferFrom",
            "outputs": [],
            "stateMutability": "nonpayable",
            "type": "function"
        },
        {
            "inputs": [
                {
                    "internalType": "address",
                    "name": "operator",
                    "type": "address"
                },
                {
                    "internalType": "bool",
                    "name": "approved",
                    "type": "bool"
                }
            ],
            "name": "setApprovalForAll",
            "outputs": [],
            "stateMutability": "nonpayable",
            "type": "function"
        },
        {
            "inputs": [
                {
                    "internalType": "bytes4",
                    "name": "interfaceId",
                    "type": "bytes4"
                }
            ],
            "name": "supportsInterface",
            "outputs": [
                {
                    "internalType": "bool",
                    "name": "",
                    "type": "bool"
                }
            ],
            "stateMutability": "view",
            "type": "function"
        },
        {
            "inputs": [],
            "name": "symbol",
            "outputs": [
                {
                    "internalType": "string",
                    "name": "",
                    "type": "string"
                }
            ],
            "stateMutability": "view",
            "type": "function"
        },
        {
            "inputs": [
                {
                    "internalType": "uint256",
                    "name": "tokenId",
                    "type": "uint256"
                }
            ],
            "name": "tokenURI",
            "outputs": [
                {
                    "internalType": "string",
                    "name": "",
                    "type": "string"
                }
            ],
            "stateMutability": "view",
            "type": "function"
        },
        {
            "inputs": [
                {
                    "internalType": "address",
                    "name": "from",
                    "type": "address"
                },
                {
                    "internalType": "address",
                    "name": "to",
                    "type": "address"
                },
                {
                    "internalType": "uint256",
                    "name": "tokenId",
                    "type": "uint256"
                }
            ],
            "name": "transferFrom",
            "outputs": [],
            "stateMutability": "nonpayable",
            "type": "function"
        }
    ],
    "bytecode": "0x60806040523480156200001157600080fd5b506040518060400160405280600b81526020017f45766964656e63654e46540000000000000000000000000000000000000000008152506040518060400160405280600b81526020017f45564944454e43454e4654000000000000000000000000000000000000000000815250816000908051906020019062000096929190620001b3565b508060019080519060200190620000af929190620001b3565b505050620000e160405180606001604052806021815260200162003bdd60219139620000e760201b62000dac1760201c565b62000390565b6200018781604051602401620000fe9190620002a4565b6040516020818303038152906040527f41304fac000000000000000000000000000000000000000000000000000000007bffffffffffffffffffffffffffffffffffffffffffffffffffffffff19166020820180517bffffffffffffffffffffffffffffffffffffffffffffffffffffffff83818316178352505050506200018a60201b60201c565b50565b60008151905060006a636f6e736f6c652e6c6f679050602083016000808483855afa5050505050565b828054620001c1906200031a565b90600052602060002090601f016020900481019282620001e5576000855562000231565b82601f106200020057805160ff191683800117855562000231565b8280016001018555821562000231579182015b828111156200023057825182559160200191906001019062000213565b5b50905062000240919062000244565b5090565b5b808211156200025f57600081600090555060010162000245565b5090565b60006200027082620002c8565b6200027c8185620002d3565b93506200028e818560208601620002e4565b62000299816200037f565b840191505092915050565b60006020820190508181036000830152620002c0818462000263565b905092915050565b600081519050919050565b600082825260208201905092915050565b60005b8381101562000304578082015181840152602081019050620002e7565b8381111562000314576000848401525b50505050565b600060028204905060018216806200033357607f821691505b602082108114156200034a576200034962000350565b5b50919050565b7f4e487b7100000000000000000000000000000000000000000000000000000000600052602260045260246000fd5b6000601f19601f8301169050919050565b61383d80620003a06000396000f3fe608060405234801561001057600080fd5b50600436106100ea5760003560e01c806370a082311161008c578063a22cb46511610066578063a22cb4651461025b578063b88d4fde14610277578063c87b56dd14610293578063e985e9c5146102c3576100ea565b806370a08231146101f157806393d3f1921461022157806395d89b411461023d576100ea565b8063095ea7b3116100c8578063095ea7b31461016d57806323b872dd1461018957806342842e0e146101a55780636352211e146101c1576100ea565b806301ffc9a7146100ef57806306fdde031461011f578063081812fc1461013d575b600080fd5b610109600480360381019061010491906121e1565b6102f3565b6040516101169190612854565b60405180910390f35b6101276103d5565b604051610134919061286f565b60405180910390f35b6101576004803603810190610152919061229f565b610467565b60405161016491906127c4565b60405180910390f35b610187600480360381019061018291906121a5565b6104ec565b005b6101a3600480360381019061019e919061209f565b610604565b005b6101bf60048036038101906101ba919061209f565b610664565b005b6101db60048036038101906101d6919061229f565b610684565b6040516101e891906127c4565b60405180910390f35b61020b6004803603810190610206919061203a565b610736565b6040516102189190612acf565b60405180910390f35b61023b60048036038101906102369190612233565b6107ee565b005b610245610abc565b604051610252919061286f565b60405180910390f35b61027560048036038101906102709190612169565b610b4e565b005b610291600480360381019061028c91906120ee565b610b64565b005b6102ad60048036038101906102a8919061229f565b610bc6565b6040516102ba919061286f565b60405180910390f35b6102dd60048036038101906102d89190612063565b610d18565b6040516102ea9190612854565b60405180910390f35b60007f80ac58cd000000000000000000000000000000000000000000000000000000007bffffffffffffffffffffffffffffffffffffffffffffffffffffffff1916827bffffffffffffffffffffffffffffffffffffffffffffffffffffffff191614806103be57507f5b5e139f000000000000000000000000000000000000000000000000000000007bffffffffffffffffffffffffffffffffffffffffffffffffffffffff1916827bffffffffffffffffffffffffffffffffffffffffffffffffffffffff1916145b806103ce57506103cd82610e45565b5b9050919050565b6060600080546103e490612d7f565b80601f016020809104026020016040519081016040528092919081815260200182805461041090612d7f565b801561045d5780601f106104325761010080835404028352916020019161045d565b820191906000526020600020905b81548152906001019060200180831161044057829003601f168201915b5050505050905090565b600061047282610eaf565b6104b1576040517f08c379a00000000000000000000000000000000000000000000000000000000081526004016104a890612a2f565b60405180910390fd5b6004600083815260200190815260200160002060009054906101000a900473ffffffffffffffffffffffffffffffffffffffff169050919050565b60006104f782610684565b90508073ffffffffffffffffffffffffffffffffffffffff168373ffffffffffffffffffffffffffffffffffffffff161415610568576040517f08c379a000000000000000000000000000000000000000000000000000000000815260040161055f90612a8f565b60405180910390fd5b8073ffffffffffffffffffffffffffffffffffffffff16610587610f1b565b73ffffffffffffffffffffffffffffffffffffffff1614806105b657506105b5816105b0610f1b565b610d18565b5b6105f5576040517f08c379a00000000000000000000000000000000000000000000000000000000081526004016105ec9061296f565b60405180910390fd5b6105ff8383610f23565b505050565b61061561060f610f1b565b82610fdc565b610654576040517f08c379a000000000000000000000000000000000000000000000000000000000815260040161064b90612aaf565b60405180910390fd5b61065f8383836110ba565b505050565b61067f83838360405180602001604052806000815250610b64565b505050565b6000806002600084815260200190815260200160002060009054906101000a900473ffffffffffffffffffffffffffffffffffffffff169050600073ffffffffffffffffffffffffffffffffffffffff168173ffffffffffffffffffffffffffffffffffffffff16141561072d576040517f08c379a0000000000000000000000000000000000000000000000000000000008152600401610724906129af565b60405180910390fd5b80915050919050565b60008073ffffffffffffffffffffffffffffffffffffffff168273ffffffffffffffffffffffffffffffffffffffff1614156107a7576040517f08c379a000000000000000000000000000000000000000000000000000000000815260040161079e9061298f565b60405180910390fd5b600360008373ffffffffffffffffffffffffffffffffffffffff1673ffffffffffffffffffffffffffffffffffffffff168152602001908152602001600020549050919050565b60006107fa6007611316565b905060006040518060400160405280600d81526020017f45766964656e63654e46542023000000000000000000000000000000000000008152509050600061084183611324565b90506000828260405160200161085892919061269a565b604051602081830303815290604052905060006040518060800160405280604d81526020016135c5604d9139905060006040518060400160405280600a81526020017f2061742074696d653a2000000000000000000000000000000000000000000000815250905060008289838a6040516020016108d994939291906126be565b60405160208183030381529060405290506000604051806101e001604052806101b681526020016136526101b69139905060006040518060a001604052806078815260200161354d6078913990506000828c838d60405160200161094094939291906126fc565b604051602081830303815290604052905060006109878886610961856114d1565b60405160200161097393929190612745565b6040516020818303038152906040526114d1565b905060008160405160200161099c91906127a2565b60405160208183030381529060405290506109eb6040518060400160405280601581526020017f0a2d2d2d2d2d2d2d2d2d2d2d2d2d2d2d2d2d2d2d2d0000000000000000000000815250610dac565b6109f481610dac565b610a326040518060400160405280601581526020017f2d2d2d2d2d2d2d2d2d2d2d2d2d2d2d2d2d2d2d2d0a0000000000000000000000815250610dac565b610a3c338d61168f565b610a468c826116ad565b610a506007611721565b610a736040518060600160405280602d8152602001613520602d91398d33611737565b7fa684f7969f79cff801ba22962b5e82d23ca7993a3ee26fbeed43b02810b8bf86338d604051610aa492919061282b565b60405180910390a15050505050505050505050505050565b606060018054610acb90612d7f565b80601f0160208091040260200160405190810160405280929190818152602001828054610af790612d7f565b8015610b445780601f10610b1957610100808354040283529160200191610b44565b820191906000526020600020905b815481529060010190602001808311610b2757829003601f168201915b5050505050905090565b610b60610b59610f1b565b83836117d6565b5050565b610b75610b6f610f1b565b83610fdc565b610bb4576040517f08c379a0000000000000000000000000000000000000000000000000000000008152600401610bab90612aaf565b60405180910390fd5b610bc084848484611943565b50505050565b6060610bd182610eaf565b610c10576040517f08c379a0000000000000000000000000000000000000000000000000000000008152600401610c0790612a0f565b60405180910390fd5b6000600660008481526020019081526020016000208054610c3090612d7f565b80601f0160208091040260200160405190810160405280929190818152602001828054610c5c90612d7f565b8015610ca95780601f10610c7e57610100808354040283529160200191610ca9565b820191906000526020600020905b815481529060010190602001808311610c8c57829003601f168201915b505050505090506000610cba61199f565b9050600081511415610cd0578192505050610d13565b600082511115610d05578082604051602001610ced92919061269a565b60405160208183030381529060405292505050610d13565b610d0e846119b6565b925050505b919050565b6000600560008473ffffffffffffffffffffffffffffffffffffffff1673ffffffffffffffffffffffffffffffffffffffff16815260200190815260200160002060008373ffffffffffffffffffffffffffffffffffffffff1673ffffffffffffffffffffffffffffffffffffffff16815260200190815260200160002060009054906101000a900460ff16905092915050565b610e4281604051602401610dc0919061286f565b6040516020818303038152906040527f41304fac000000000000000000000000000000000000000000000000000000007bffffffffffffffffffffffffffffffffffffffffffffffffffffffff19166020820180517bffffffffffffffffffffffffffffffffffffffffffffffffffffffff8381831617835250505050611a5d565b50565b60007f01ffc9a7000000000000000000000000000000000000000000000000000000007bffffffffffffffffffffffffffffffffffffffffffffffffffffffff1916827bffffffffffffffffffffffffffffffffffffffffffffffffffffffff1916149050919050565b60008073ffffffffffffffffffffffffffffffffffffffff166002600084815260200190815260200160002060009054906101000a900473ffffffffffffffffffffffffffffffffffffffff1673ffffffffffffffffffffffffffffffffffffffff1614159050919050565b600033905090565b816004600083815260200190815260200160002060006101000a81548173ffffffffffffffffffffffffffffffffffffffff021916908373ffffffffffffffffffffffffffffffffffffffff160217905550808273ffffffffffffffffffffffffffffffffffffffff16610f9683610684565b73ffffffffffffffffffffffffffffffffffffffff167f8c5be1e5ebec7d5bd14f71427d1e84f3dd0314c0f7b2291e5b200ac8c7c3b92560405160405180910390a45050565b6000610fe782610eaf565b611026576040517f08c379a000000000000000000000000000000000000000000000000000000000815260040161101d9061294f565b60405180910390fd5b600061103183610684565b90508073ffffffffffffffffffffffffffffffffffffffff168473ffffffffffffffffffffffffffffffffffffffff1614806110a057508373ffffffffffffffffffffffffffffffffffffffff1661108884610467565b73ffffffffffffffffffffffffffffffffffffffff16145b806110b157506110b08185610d18565b5b91505092915050565b8273ffffffffffffffffffffffffffffffffffffffff166110da82610684565b73ffffffffffffffffffffffffffffffffffffffff1614611130576040517f08c379a000000000000000000000000000000000000000000000000000000000815260040161112790612a4f565b60405180910390fd5b600073ffffffffffffffffffffffffffffffffffffffff168273ffffffffffffffffffffffffffffffffffffffff1614156111a0576040517f08c379a00000000000000000000000000000000000000000000000000000000081526004016111979061290f565b60405180910390fd5b6111ab838383611a86565b6111b6600082610f23565b6001600360008573ffffffffffffffffffffffffffffffffffffffff1673ffffffffffffffffffffffffffffffffffffffff16815260200190815260200160002060008282546112069190612c95565b925050819055506001600360008473ffffffffffffffffffffffffffffffffffffffff1673ffffffffffffffffffffffffffffffffffffffff168152602001908152602001600020600082825461125d9190612bb4565b92505081905550816002600083815260200190815260200160002060006101000a81548173ffffffffffffffffffffffffffffffffffffffff021916908373ffffffffffffffffffffffffffffffffffffffff160217905550808273ffffffffffffffffffffffffffffffffffffffff168473ffffffffffffffffffffffffffffffffffffffff167fddf252ad1be2c89b69c2b068fc378daa952ba7f163c4a11628f55a4df523b3ef60405160405180910390a4505050565b600081600001549050919050565b6060600082141561136c576040518060400160405280600181526020017f300000000000000000000000000000000000000000000000000000000000000081525090506114cc565b600082905060005b6000821461139e57808061138790612de2565b915050600a826113979190612c0a565b9150611374565b60008167ffffffffffffffff8111156113e0577f4e487b7100000000000000000000000000000000000000000000000000000000600052604160045260246000fd5b6040519080825280601f01601f1916602001820160405280156114125781602001600182028036833780820191505090505b5090505b600085146114c55760018261142b9190612c95565b9150600a8561143a9190612e2b565b60306114469190612bb4565b60f81b818381518110611482577f4e487b7100000000000000000000000000000000000000000000000000000000600052603260045260246000fd5b60200101907effffffffffffffffffffffffffffffffffffffffffffffffffffffffffffff1916908160001a905350600a856114be9190612c0a565b9450611416565b8093505050505b919050565b606060008251905060008114156114fa576040518060200160405280600081525091505061168a565b6000600360028361150b9190612bb4565b6115159190612c0a565b60046115219190612c3b565b905060006020826115329190612bb4565b67ffffffffffffffff811115611571577f4e487b7100000000000000000000000000000000000000000000000000000000600052604160045260246000fd5b6040519080825280601f01601f1916602001820160405280156115a35781602001600182028036833780820191505090505b5090506000604051806060016040528060408152602001613612604091399050600181016020830160005b868110156116475760038101905062ffffff818a015116603f8160121c168401518060081b905060ff603f83600c1c1686015116810190508060081b905060ff603f8360061c1686015116810190508060081b905060ff603f831686015116810190508060e01b905080845260048401935050506115ce565b50600386066001811461166157600281146116715761167c565b613d3d60f01b600283035261167c565b603d60f81b60018303525b508484525050819450505050505b919050565b6116a9828260405180602001604052806000815250611a8b565b5050565b6116b682610eaf565b6116f5576040517f08c379a00000000000000000000000000000000000000000000000000000000081526004016116ec906129cf565b60405180910390fd5b8060066000848152602001908152602001600020908051906020019061171c929190611e5e565b505050565b6001816000016000828254019250508190555050565b6117d183838360405160240161174f93929190612891565b6040516020818303038152906040527fe3849f79000000000000000000000000000000000000000000000000000000007bffffffffffffffffffffffffffffffffffffffffffffffffffffffff19166020820180517bffffffffffffffffffffffffffffffffffffffffffffffffffffffff8381831617835250505050611a5d565b505050565b8173ffffffffffffffffffffffffffffffffffffffff168373ffffffffffffffffffffffffffffffffffffffff161415611845576040517f08c379a000000000000000000000000000000000000000000000000000000000815260040161183c9061292f565b60405180910390fd5b80600560008573ffffffffffffffffffffffffffffffffffffffff1673ffffffffffffffffffffffffffffffffffffffff16815260200190815260200160002060008473ffffffffffffffffffffffffffffffffffffffff1673ffffffffffffffffffffffffffffffffffffffff16815260200190815260200160002060006101000a81548160ff0219169083151502179055508173ffffffffffffffffffffffffffffffffffffffff168373ffffffffffffffffffffffffffffffffffffffff167f17307eab39ab6107e8899845ad3d59bd9653f200f220920489ca2b5937696c31836040516119369190612854565b60405180910390a3505050565b61194e8484846110ba565b61195a84848484611ae6565b611999576040517f08c379a0000000000000000000000000000000000000000000000000000000008152600401611990906128cf565b60405180910390fd5b50505050565b606060405180602001604052806000815250905090565b60606119c182610eaf565b611a00576040517f08c379a00000000000000000000000000000000000000000000000000000000081526004016119f790612a6f565b60405180910390fd5b6000611a0a61199f565b90506000815111611a2a5760405180602001604052806000815250611a55565b80611a3484611324565b604051602001611a4592919061269a565b6040516020818303038152906040525b915050919050565b60008151905060006a636f6e736f6c652e6c6f679050602083016000808483855afa5050505050565b505050565b611a958383611c7d565b611aa26000848484611ae6565b611ae1576040517f08c379a0000000000000000000000000000000000000000000000000000000008152600401611ad8906128cf565b60405180910390fd5b505050565b6000611b078473ffffffffffffffffffffffffffffffffffffffff16611e4b565b15611c70578373ffffffffffffffffffffffffffffffffffffffff1663150b7a02611b30610f1b565b8786866040518563ffffffff1660e01b8152600401611b5294939291906127df565b602060405180830381600087803b158015611b6c57600080fd5b505af1925050508015611b9d57506040513d601f19601f82011682018060405250810190611b9a919061220a565b60015b611c20573d8060008114611bcd576040519150601f19603f3d011682016040523d82523d6000602084013e611bd2565b606091505b50600081511415611c18576040517f08c379a0000000000000000000000000000000000000000000000000000000008152600401611c0f906128cf565b60405180910390fd5b805181602001fd5b63150b7a0260e01b7bffffffffffffffffffffffffffffffffffffffffffffffffffffffff1916817bffffffffffffffffffffffffffffffffffffffffffffffffffffffff191614915050611c75565b600190505b949350505050565b600073ffffffffffffffffffffffffffffffffffffffff168273ffffffffffffffffffffffffffffffffffffffff161415611ced576040517f08c379a0000000000000000000000000000000000000000000000000000000008152600401611ce4906129ef565b60405180910390fd5b611cf681610eaf565b15611d36576040517f08c379a0000000000000000000000000000000000000000000000000000000008152600401611d2d906128ef565b60405180910390fd5b611d4260008383611a86565b6001600360008473ffffffffffffffffffffffffffffffffffffffff1673ffffffffffffffffffffffffffffffffffffffff1681526020019081526020016000206000828254611d929190612bb4565b92505081905550816002600083815260200190815260200160002060006101000a81548173ffffffffffffffffffffffffffffffffffffffff021916908373ffffffffffffffffffffffffffffffffffffffff160217905550808273ffffffffffffffffffffffffffffffffffffffff16600073ffffffffffffffffffffffffffffffffffffffff167fddf252ad1be2c89b69c2b068fc378daa952ba7f163c4a11628f55a4df523b3ef60405160405180910390a45050565b600080823b905060008111915050919050565b828054611e6a90612d7f565b90600052602060002090601f016020900481019282611e8c5760008555611ed3565b82601f10611ea557805160ff1916838001178555611ed3565b82800160010185558215611ed3579182015b82811115611ed2578251825591602001919060010190611eb7565b5b509050611ee09190611ee4565b5090565b5b80821115611efd576000816000905550600101611ee5565b5090565b6000611f14611f0f84612b0f565b612aea565b905082815260208101848484011115611f2c57600080fd5b611f37848285612d3d565b509392505050565b6000611f52611f4d84612b40565b612aea565b905082815260208101848484011115611f6a57600080fd5b611f75848285612d3d565b509392505050565b600081359050611f8c816134c3565b92915050565b600081359050611fa1816134da565b92915050565b600081359050611fb6816134f1565b92915050565b600081519050611fcb816134f1565b92915050565b600082601f830112611fe257600080fd5b8135611ff2848260208601611f01565b91505092915050565b600082601f83011261200c57600080fd5b813561201c848260208601611f3f565b91505092915050565b60008135905061203481613508565b92915050565b60006020828403121561204c57600080fd5b600061205a84828501611f7d565b91505092915050565b6000806040838503121561207657600080fd5b600061208485828601611f7d565b925050602061209585828601611f7d565b9150509250929050565b6000806000606084860312156120b457600080fd5b60006120c286828701611f7d565b93505060206120d386828701611f7d565b92505060406120e486828701612025565b9150509250925092565b6000806000806080858703121561210457600080fd5b600061211287828801611f7d565b945050602061212387828801611f7d565b935050604061213487828801612025565b925050606085013567ffffffffffffffff81111561215157600080fd5b61215d87828801611fd1565b91505092959194509250565b6000806040838503121561217c57600080fd5b600061218a85828601611f7d565b925050602061219b85828601611f92565b9150509250929050565b600080604083850312156121b857600080fd5b60006121c685828601611f7d565b92505060206121d785828601612025565b9150509250929050565b6000602082840312156121f357600080fd5b600061220184828501611fa7565b91505092915050565b60006020828403121561221c57600080fd5b600061222a84828501611fbc565b91505092915050565b6000806040838503121561224657600080fd5b600083013567ffffffffffffffff81111561226057600080fd5b61226c85828601611ffb565b925050602083013567ffffffffffffffff81111561228957600080fd5b61229585828601611ffb565b9150509250929050565b6000602082840312156122b157600080fd5b60006122bf84828501612025565b91505092915050565b6122d181612cc9565b82525050565b6122e081612cdb565b82525050565b60006122f182612b71565b6122fb8185612b87565b935061230b818560208601612d4c565b61231481612f18565b840191505092915050565b600061232a82612b7c565b6123348185612b98565b9350612344818560208601612d4c565b61234d81612f18565b840191505092915050565b600061236382612b7c565b61236d8185612ba9565b935061237d818560208601612d4c565b80840191505092915050565b6000612396601383612ba9565b91506123a182612f29565b601382019050919050565b60006123b9603283612b98565b91506123c482612f52565b604082019050919050565b60006123dc601c83612b98565b91506123e782612fa1565b602082019050919050565b60006123ff602483612b98565b915061240a82612fca565b604082019050919050565b6000612422601983612b98565b915061242d82613019565b602082019050919050565b6000612445602c83612b98565b915061245082613042565b604082019050919050565b6000612468603883612b98565b915061247382613091565b604082019050919050565b600061248b602a83612b98565b9150612496826130e0565b604082019050919050565b60006124ae602983612b98565b91506124b98261312f565b604082019050919050565b60006124d1602e83612b98565b91506124dc8261317e565b604082019050919050565b60006124f4600283612ba9565b91506124ff826131cd565b600282019050919050565b6000612517602083612b98565b9150612522826131f6565b602082019050919050565b600061253a603183612b98565b91506125458261321f565b604082019050919050565b600061255d602c83612b98565b91506125688261326e565b604082019050919050565b6000612580602983612b98565b915061258b826132bd565b604082019050919050565b60006125a3602f83612b98565b91506125ae8261330c565b604082019050919050565b60006125c6602783612ba9565b91506125d18261335b565b602782019050919050565b60006125e9600a83612ba9565b91506125f4826133aa565b600a82019050919050565b600061260c602183612b98565b9150612617826133d3565b604082019050919050565b600061262f601d83612ba9565b915061263a82613422565b601d82019050919050565b6000612652603183612b98565b915061265d8261344b565b604082019050919050565b6000612675601583612ba9565b91506126808261349a565b601582019050919050565b61269481612d33565b82525050565b60006126a68285612358565b91506126b28284612358565b91508190509392505050565b60006126ca8287612358565b91506126d68286612358565b91506126e28285612358565b91506126ee8284612358565b915081905095945050505050565b60006127088287612358565b91506127148286612358565b91506127208285612358565b915061272c8284612358565b915061273782612668565b915081905095945050505050565b6000612750826125dc565b915061275c8286612358565b915061276782612389565b91506127738285612358565b915061277e826125b9565b915061278a8284612358565b9150612795826124e7565b9150819050949350505050565b60006127ad82612622565b91506127b98284612358565b915081905092915050565b60006020820190506127d960008301846122c8565b92915050565b60006080820190506127f460008301876122c8565b61280160208301866122c8565b61280e604083018561268b565b818103606083015261282081846122e6565b905095945050505050565b600060408201905061284060008301856122c8565b61284d602083018461268b565b9392505050565b600060208201905061286960008301846122d7565b92915050565b60006020820190508181036000830152612889818461231f565b905092915050565b600060608201905081810360008301526128ab818661231f565b90506128ba602083018561268b565b6128c760408301846122c8565b949350505050565b600060208201905081810360008301526128e8816123ac565b9050919050565b60006020820190508181036000830152612908816123cf565b9050919050565b60006020820190508181036000830152612928816123f2565b9050919050565b6000602082019050818103600083015261294881612415565b9050919050565b6000602082019050818103600083015261296881612438565b9050919050565b600060208201905081810360008301526129888161245b565b9050919050565b600060208201905081810360008301526129a88161247e565b9050919050565b600060208201905081810360008301526129c8816124a1565b9050919050565b600060208201905081810360008301526129e8816124c4565b9050919050565b60006020820190508181036000830152612a088161250a565b9050919050565b60006020820190508181036000830152612a288161252d565b9050919050565b60006020820190508181036000830152612a4881612550565b9050919050565b60006020820190508181036000830152612a6881612573565b9050919050565b60006020820190508181036000830152612a8881612596565b9050919050565b60006020820190508181036000830152612aa8816125ff565b9050919050565b60006020820190508181036000830152612ac881612645565b9050919050565b6000602082019050612ae4600083018461268b565b92915050565b6000612af4612b05565b9050612b008282612db1565b919050565b6000604051905090565b600067ffffffffffffffff821115612b2a57612b29612ee9565b5b612b3382612f18565b9050602081019050919050565b600067ffffffffffffffff821115612b5b57612b5a612ee9565b5b612b6482612f18565b9050602081019050919050565b600081519050919050565b600081519050919050565b600082825260208201905092915050565b600082825260208201905092915050565b600081905092915050565b6000612bbf82612d33565b9150612bca83612d33565b9250827fffffffffffffffffffffffffffffffffffffffffffffffffffffffffffffffff03821115612bff57612bfe612e5c565b5b828201905092915050565b6000612c1582612d33565b9150612c2083612d33565b925082612c3057612c2f612e8b565b5b828204905092915050565b6000612c4682612d33565b9150612c5183612d33565b9250817fffffffffffffffffffffffffffffffffffffffffffffffffffffffffffffffff0483118215151615612c8a57612c89612e5c565b5b828202905092915050565b6000612ca082612d33565b9150612cab83612d33565b925082821015612cbe57612cbd612e5c565b5b828203905092915050565b6000612cd482612d13565b9050919050565b60008115159050919050565b60007fffffffff0000000000000000000000000000000000000000000000000000000082169050919050565b600073ffffffffffffffffffffffffffffffffffffffff82169050919050565b6000819050919050565b82818337600083830152505050565b60005b83811015612d6a578082015181840152602081019050612d4f565b83811115612d79576000848401525b50505050565b60006002820490506001821680612d9757607f821691505b60208210811415612dab57612daa612eba565b5b50919050565b612dba82612f18565b810181811067ffffffffffffffff82111715612dd957612dd8612ee9565b5b80604052505050565b6000612ded82612d33565b91507fffffffffffffffffffffffffffffffffffffffffffffffffffffffffffffffff821415612e2057612e1f612e5c565b5b600182019050919050565b6000612e3682612d33565b9150612e4183612d33565b925082612e5157612e50612e8b565b5b828206905092915050565b7f4e487b7100000000000000000000000000000000000000000000000000000000600052601160045260246000fd5b7f4e487b7100000000000000000000000000000000000000000000000000000000600052601260045260246000fd5b7f4e487b7100000000000000000000000000000000000000000000000000000000600052602260045260246000fd5b7f4e487b7100000000000000000000000000000000000000000000000000000000600052604160045260246000fd5b6000601f19601f8301169050919050565b7f222c20226465736372697074696f6e223a202200000000000000000000000000600082015250565b7f4552433732313a207472616e7366657220746f206e6f6e20455243373231526560008201527f63656976657220696d706c656d656e7465720000000000000000000000000000602082015250565b7f4552433732313a20746f6b656e20616c7265616479206d696e74656400000000600082015250565b7f4552433732313a207472616e7366657220746f20746865207a65726f2061646460008201527f7265737300000000000000000000000000000000000000000000000000000000602082015250565b7f4552433732313a20617070726f766520746f2063616c6c657200000000000000600082015250565b7f4552433732313a206f70657261746f7220717565727920666f72206e6f6e657860008201527f697374656e7420746f6b656e0000000000000000000000000000000000000000602082015250565b7f4552433732313a20617070726f76652063616c6c6572206973206e6f74206f7760008201527f6e6572206e6f7220617070726f76656420666f7220616c6c0000000000000000602082015250565b7f4552433732313a2062616c616e636520717565727920666f7220746865207a6560008201527f726f206164647265737300000000000000000000000000000000000000000000602082015250565b7f4552433732313a206f776e657220717565727920666f72206e6f6e657869737460008201527f656e7420746f6b656e0000000000000000000000000000000000000000000000602082015250565b7f45524337323155524953746f726167653a2055524920736574206f66206e6f6e60008201527f6578697374656e7420746f6b656e000000000000000000000000000000000000602082015250565b7f227d000000000000000000000000000000000000000000000000000000000000600082015250565b7f4552433732313a206d696e7420746f20746865207a65726f2061646472657373600082015250565b7f45524337323155524953746f726167653a2055524920717565727920666f722060008201527f6e6f6e6578697374656e7420746f6b656e000000000000000000000000000000602082015250565b7f4552433732313a20617070726f76656420717565727920666f72206e6f6e657860008201527f697374656e7420746f6b656e0000000000000000000000000000000000000000602082015250565b7f4552433732313a207472616e73666572206f6620746f6b656e2074686174206960008201527f73206e6f74206f776e0000000000000000000000000000000000000000000000602082015250565b7f4552433732314d657461646174613a2055524920717565727920666f72206e6f60008201527f6e6578697374656e7420746f6b656e0000000000000000000000000000000000602082015250565b7f222c2022696d616765223a2022646174613a696d6167652f7376672b786d6c3b60008201527f6261736536342c00000000000000000000000000000000000000000000000000602082015250565b7f7b226e616d65223a202200000000000000000000000000000000000000000000600082015250565b7f4552433732313a20617070726f76616c20746f2063757272656e74206f776e6560008201527f7200000000000000000000000000000000000000000000000000000000000000602082015250565b7f646174613a6170706c69636174696f6e2f6a736f6e3b6261736536342c000000600082015250565b7f4552433732313a207472616e736665722063616c6c6572206973206e6f74206f60008201527f776e6572206e6f7220617070726f766564000000000000000000000000000000602082015250565b7f3c2f747370616e3e3c2f746578743e3c2f7376673e0000000000000000000000600082015250565b6134cc81612cc9565b81146134d757600080fd5b50565b6134e381612cdb565b81146134ee57600080fd5b50565b6134fa81612ce7565b811461350557600080fd5b50565b61351181612d33565b811461351c57600080fd5b5056fe416e2045766964656e63654e465420772f20494420257320686173206265656e206d696e74656420746f2025733c2f747370616e3e3c747370616e20783d273530252720793d273330252720616c69676e6d656e742d626173656c696e653d27746578742d6265666f72652d65646765272020746578744c656e6774683d2732353027206c656e67746841646a7573743d2773706163696e67416e64476c7970687327203e45766964656e63654e46542067656e65726174656420666f722073657276696e6720617320616e2065766964656e636520666f7220746865206578697374616e6365206f662074776565743a204142434445464748494a4b4c4d4e4f505152535455565758595a6162636465666768696a6b6c6d6e6f707172737475767778797a303132333435363738392b2f3c73766720786d6c6e733d27687474703a2f2f7777772e77332e6f72672f323030302f73766727207072657365727665417370656374526174696f3d27784d696e594d696e206d656574272076696577426f783d273020302033353020333530273e3c7374796c653e2e62617365207b2066696c6c3a2077686974653b20666f6e742d66616d696c793a2073657269663b20666f6e742d73697a653a20323470783b207d3c2f7374796c653e3c726563742077696474683d273130302527206865696768743d2731303025272066696c6c3d27626c61636b27202f3e3c7465787420783d273530252720793d273530252720636c6173733d27626173652720646f6d696e616e742d626173656c696e653d276d6964646c652720746578742d616e63686f723d276d6964646c65273e20494e44454c4941424c4520454e564944454e434553203c747370616e20783d273530252720793d273130252720616c69676e6d656e742d626173656c696e653d27746578742d6265666f72652d65646765272020746578744c656e6774683d2732353027206c656e67746841646a7573743d2773706163696e67416e64476c7970687327203ea2646970667358221220e54694d74cf239cda8baa5441a54df3b14dcc207d6a1bbe11450acdc816f94d364736f6c6343000804003354686973206973207468652045766964656e63654e465420636f6e747261637421",
    "linkReferences": {},
    "deployedLinkReferences": {}
}